{
    "_format": "hh-sol-artifact-1",
    "contractName": "MonopolyAssets",
    "sourceName": "contracts/MonopolyAssets.sol",
    "abi": [
        {
            "inputs": [],
            "stateMutability": "nonpayable",
            "type": "constructor"
        },
        {
            "inputs": [
                {
                    "internalType": "address",
                    "name": "sender",
                    "type": "address"
                },
                {
                    "internalType": "uint256",
                    "name": "balance",
                    "type": "uint256"
                },
                {
                    "internalType": "uint256",
                    "name": "needed",
                    "type": "uint256"
                },
                {
                    "internalType": "uint256",
                    "name": "tokenId",
                    "type": "uint256"
                }
            ],
            "name": "ERC1155InsufficientBalance",
            "type": "error"
        },
        {
            "inputs": [
                {
                    "internalType": "address",
                    "name": "approver",
                    "type": "address"
                }
            ],
            "name": "ERC1155InvalidApprover",
            "type": "error"
        },
        {
            "inputs": [
                {
                    "internalType": "uint256",
                    "name": "idsLength",
                    "type": "uint256"
                },
                {
                    "internalType": "uint256",
                    "name": "valuesLength",
                    "type": "uint256"
                }
            ],
            "name": "ERC1155InvalidArrayLength",
            "type": "error"
        },
        {
            "inputs": [
                {
                    "internalType": "address",
                    "name": "operator",
                    "type": "address"
                }
            ],
            "name": "ERC1155InvalidOperator",
            "type": "error"
        },
        {
            "inputs": [
                {
                    "internalType": "address",
                    "name": "receiver",
                    "type": "address"
                }
            ],
            "name": "ERC1155InvalidReceiver",
            "type": "error"
        },
        {
            "inputs": [
                {
                    "internalType": "address",
                    "name": "sender",
                    "type": "address"
                }
            ],
            "name": "ERC1155InvalidSender",
            "type": "error"
        },
        {
            "inputs": [
                {
                    "internalType": "address",
                    "name": "operator",
                    "type": "address"
                },
                {
                    "internalType": "address",
                    "name": "owner",
                    "type": "address"
                }
            ],
            "name": "ERC1155MissingApprovalForAll",
            "type": "error"
        },
        {
            "inputs": [
                {
                    "internalType": "address",
                    "name": "owner",
                    "type": "address"
                }
            ],
            "name": "OwnableInvalidOwner",
            "type": "error"
        },
        {
            "inputs": [
                {
                    "internalType": "address",
                    "name": "account",
                    "type": "address"
                }
            ],
            "name": "OwnableUnauthorizedAccount",
            "type": "error"
        },
        {
            "anonymous": false,
            "inputs": [
                {
                    "indexed": true,
                    "internalType": "address",
                    "name": "account",
                    "type": "address"
                },
                {
                    "indexed": true,
                    "internalType": "address",
                    "name": "operator",
                    "type": "address"
                },
                {
                    "indexed": false,
                    "internalType": "bool",
                    "name": "approved",
                    "type": "bool"
                }
            ],
            "name": "ApprovalForAll",
            "type": "event"
        },
        {
            "anonymous": false,
            "inputs": [
                {
                    "indexed": true,
                    "internalType": "uint256",
                    "name": "tokenId",
                    "type": "uint256"
                },
                {
                    "indexed": false,
                    "internalType": "string",
                    "name": "name",
                    "type": "string"
                },
                {
                    "indexed": false,
                    "internalType": "enum MonopolyAssets.AssetType",
                    "name": "assetType",
                    "type": "uint8"
                },
                {
                    "indexed": false,
                    "internalType": "uint256",
                    "name": "value",
                    "type": "uint256"
                },
                {
                    "indexed": false,
                    "internalType": "string",
                    "name": "ipfsHash",
                    "type": "string"
                }
            ],
            "name": "AssetCreated",
            "type": "event"
        },
        {
            "anonymous": false,
            "inputs": [
                {
                    "indexed": true,
                    "internalType": "address",
                    "name": "to",
                    "type": "address"
                },
                {
                    "indexed": true,
                    "internalType": "uint256",
                    "name": "tokenId",
                    "type": "uint256"
                },
                {
                    "indexed": false,
                    "internalType": "uint256",
                    "name": "amount",
                    "type": "uint256"
                }
            ],
            "name": "AssetMinted",
            "type": "event"
        },
        {
            "anonymous": false,
            "inputs": [
                {
                    "indexed": true,
                    "internalType": "address",
                    "name": "previousOwner",
                    "type": "address"
                },
                {
                    "indexed": true,
                    "internalType": "address",
                    "name": "newOwner",
                    "type": "address"
                }
            ],
            "name": "OwnershipTransferred",
            "type": "event"
        },
        {
            "anonymous": false,
            "inputs": [
                {
                    "indexed": true,
                    "internalType": "address",
                    "name": "maker",
                    "type": "address"
                },
                {
                    "indexed": true,
                    "internalType": "address",
                    "name": "counterparty",
                    "type": "address"
                },
                {
                    "indexed": false,
                    "internalType": "uint256",
                    "name": "idGive",
                    "type": "uint256"
                },
                {
                    "indexed": false,
                    "internalType": "uint256",
                    "name": "amountGive",
                    "type": "uint256"
                },
                {
                    "indexed": false,
                    "internalType": "uint256",
                    "name": "idWant",
                    "type": "uint256"
                },
                {
                    "indexed": false,
                    "internalType": "uint256",
                    "name": "amountWant",
                    "type": "uint256"
                }
            ],
            "name": "TradeExecuted",
            "type": "event"
        },
        {
            "anonymous": false,
            "inputs": [
                {
                    "indexed": true,
                    "internalType": "address",
                    "name": "operator",
                    "type": "address"
                },
                {
                    "indexed": true,
                    "internalType": "address",
                    "name": "from",
                    "type": "address"
                },
                {
                    "indexed": true,
                    "internalType": "address",
                    "name": "to",
                    "type": "address"
                },
                {
                    "indexed": false,
                    "internalType": "uint256[]",
                    "name": "ids",
                    "type": "uint256[]"
                },
                {
                    "indexed": false,
                    "internalType": "uint256[]",
                    "name": "values",
                    "type": "uint256[]"
                }
            ],
            "name": "TransferBatch",
            "type": "event"
        },
        {
            "anonymous": false,
            "inputs": [
                {
                    "indexed": true,
                    "internalType": "address",
                    "name": "operator",
                    "type": "address"
                },
                {
                    "indexed": true,
                    "internalType": "address",
                    "name": "from",
                    "type": "address"
                },
                {
                    "indexed": true,
                    "internalType": "address",
                    "name": "to",
                    "type": "address"
                },
                {
                    "indexed": false,
                    "internalType": "uint256",
                    "name": "id",
                    "type": "uint256"
                },
                {
                    "indexed": false,
                    "internalType": "uint256",
                    "name": "value",
                    "type": "uint256"
                }
            ],
            "name": "TransferSingle",
            "type": "event"
        },
        {
            "anonymous": false,
            "inputs": [
                {
                    "indexed": false,
                    "internalType": "string",
                    "name": "value",
                    "type": "string"
                },
                {
                    "indexed": true,
                    "internalType": "uint256",
                    "name": "id",
                    "type": "uint256"
                }
            ],
            "name": "URI",
            "type": "event"
        },
        {
            "inputs": [],
            "name": "COOLDOWN_SECONDS",
            "outputs": [
                {
                    "internalType": "uint256",
                    "name": "",
                    "type": "uint256"
                }
            ],
            "stateMutability": "view",
            "type": "function"
        },
        {
            "inputs": [],
            "name": "LOCK_SECONDS",
            "outputs": [
                {
                    "internalType": "uint256",
                    "name": "",
                    "type": "uint256"
                }
            ],
            "stateMutability": "view",
            "type": "function"
        },
        {
            "inputs": [],
            "name": "MAX_UNIQUE_RESOURCES",
            "outputs": [
                {
                    "internalType": "uint256",
                    "name": "",
                    "type": "uint256"
                }
            ],
            "stateMutability": "view",
            "type": "function"
        },
        {
            "inputs": [
                {
                    "internalType": "address",
                    "name": "account",
                    "type": "address"
                },
                {
                    "internalType": "uint256",
                    "name": "id",
                    "type": "uint256"
                }
            ],
            "name": "balanceOf",
            "outputs": [
                {
                    "internalType": "uint256",
                    "name": "",
                    "type": "uint256"
                }
            ],
            "stateMutability": "view",
            "type": "function"
        },
        {
            "inputs": [
                {
                    "internalType": "address[]",
                    "name": "accounts",
                    "type": "address[]"
                },
                {
                    "internalType": "uint256[]",
                    "name": "ids",
                    "type": "uint256[]"
                }
            ],
            "name": "balanceOfBatch",
            "outputs": [
                {
                    "internalType": "uint256[]",
                    "name": "",
                    "type": "uint256[]"
                }
            ],
            "stateMutability": "view",
            "type": "function"
        },
        {
            "inputs": [
                {
                    "internalType": "string",
                    "name": "name",
                    "type": "string"
                },
                {
                    "internalType": "enum MonopolyAssets.AssetType",
                    "name": "assetType",
                    "type": "uint8"
                },
                {
                    "internalType": "uint256",
                    "name": "value",
                    "type": "uint256"
                },
                {
                    "internalType": "string",
                    "name": "ipfsHash",
                    "type": "string"
                }
            ],
            "name": "createAsset",
            "outputs": [
                {
                    "internalType": "uint256",
                    "name": "tokenId",
                    "type": "uint256"
                }
            ],
            "stateMutability": "nonpayable",
            "type": "function"
        },
        {
            "inputs": [
                {
                    "internalType": "uint256",
                    "name": "tokenId",
                    "type": "uint256"
                }
            ],
            "name": "getAsset",
            "outputs": [
                {
                    "components": [
                        {
                            "internalType": "string",
                            "name": "name",
                            "type": "string"
                        },
                        {
                            "internalType": "enum MonopolyAssets.AssetType",
                            "name": "assetType",
                            "type": "uint8"
                        },
                        {
                            "internalType": "uint256",
                            "name": "value",
                            "type": "uint256"
                        },
                        {
                            "internalType": "string",
                            "name": "ipfsHash",
                            "type": "string"
                        },
                        {
                            "internalType": "uint256",
                            "name": "createdAt",
                            "type": "uint256"
                        },
                        {
                            "internalType": "uint256",
                            "name": "lastTransferAt",
                            "type": "uint256"
                        }
                    ],
                    "internalType": "struct MonopolyAssets.AssetInfo",
                    "name": "",
                    "type": "tuple"
                }
            ],
            "stateMutability": "view",
            "type": "function"
        },
        {
            "inputs": [
                {
                    "internalType": "uint256",
                    "name": "tokenId",
                    "type": "uint256"
                }
            ],
            "name": "getPreviousOwners",
            "outputs": [
                {
                    "internalType": "address[]",
                    "name": "",
                    "type": "address[]"
                }
            ],
            "stateMutability": "view",
            "type": "function"
        },
        {
            "inputs": [
                {
                    "internalType": "address",
                    "name": "account",
                    "type": "address"
                },
                {
                    "internalType": "address",
                    "name": "operator",
                    "type": "address"
                }
            ],
            "name": "isApprovedForAll",
            "outputs": [
                {
                    "internalType": "bool",
                    "name": "",
                    "type": "bool"
                }
            ],
            "stateMutability": "view",
            "type": "function"
        },
        {
            "inputs": [
                {
                    "internalType": "address",
                    "name": "",
                    "type": "address"
                }
            ],
            "name": "lastActionAt",
            "outputs": [
                {
                    "internalType": "uint256",
                    "name": "",
                    "type": "uint256"
                }
            ],
            "stateMutability": "view",
            "type": "function"
        },
        {
            "inputs": [
                {
                    "internalType": "address",
                    "name": "",
                    "type": "address"
                },
                {
                    "internalType": "uint256",
                    "name": "",
                    "type": "uint256"
                }
            ],
            "name": "lockedUntil",
            "outputs": [
                {
                    "internalType": "uint256",
                    "name": "",
                    "type": "uint256"
                }
            ],
            "stateMutability": "view",
            "type": "function"
        },
        {
            "inputs": [
                {
                    "internalType": "address",
                    "name": "to",
                    "type": "address"
                },
                {
                    "internalType": "uint256",
                    "name": "tokenId",
                    "type": "uint256"
                },
                {
                    "internalType": "uint256",
                    "name": "amount",
                    "type": "uint256"
                }
            ],
            "name": "mintTo",
            "outputs": [],
            "stateMutability": "nonpayable",
            "type": "function"
        },
        {
            "inputs": [],
            "name": "owner",
            "outputs": [
                {
                    "internalType": "address",
                    "name": "",
                    "type": "address"
                }
            ],
            "stateMutability": "view",
            "type": "function"
        },
        {
            "inputs": [],
            "name": "renounceOwnership",
            "outputs": [],
            "stateMutability": "nonpayable",
            "type": "function"
        },
        {
            "inputs": [
                {
                    "internalType": "address",
                    "name": "from",
                    "type": "address"
                },
                {
                    "internalType": "address",
                    "name": "to",
                    "type": "address"
                },
                {
                    "internalType": "uint256[]",
                    "name": "ids",
                    "type": "uint256[]"
                },
                {
                    "internalType": "uint256[]",
                    "name": "values",
                    "type": "uint256[]"
                },
                {
                    "internalType": "bytes",
                    "name": "data",
                    "type": "bytes"
                }
            ],
            "name": "safeBatchTransferFrom",
            "outputs": [],
            "stateMutability": "nonpayable",
            "type": "function"
        },
        {
            "inputs": [
                {
                    "internalType": "address",
                    "name": "from",
                    "type": "address"
                },
                {
                    "internalType": "address",
                    "name": "to",
                    "type": "address"
                },
                {
                    "internalType": "uint256",
                    "name": "id",
                    "type": "uint256"
                },
                {
                    "internalType": "uint256",
                    "name": "value",
                    "type": "uint256"
                },
                {
                    "internalType": "bytes",
                    "name": "data",
                    "type": "bytes"
                }
            ],
            "name": "safeTransferFrom",
            "outputs": [],
            "stateMutability": "nonpayable",
            "type": "function"
        },
        {
            "inputs": [
                {
                    "internalType": "address",
                    "name": "operator",
                    "type": "address"
                },
                {
                    "internalType": "bool",
                    "name": "approved",
                    "type": "bool"
                }
            ],
            "name": "setApprovalForAll",
            "outputs": [],
            "stateMutability": "nonpayable",
            "type": "function"
        },
        {
            "inputs": [
                {
                    "internalType": "bytes4",
                    "name": "interfaceId",
                    "type": "bytes4"
                }
            ],
            "name": "supportsInterface",
            "outputs": [
                {
                    "internalType": "bool",
                    "name": "",
                    "type": "bool"
                }
            ],
            "stateMutability": "view",
            "type": "function"
        },
        {
            "inputs": [
                {
                    "internalType": "address",
                    "name": "counterparty",
                    "type": "address"
                },
                {
                    "internalType": "uint256",
                    "name": "idGive",
                    "type": "uint256"
                },
                {
                    "internalType": "uint256",
                    "name": "amountGive",
                    "type": "uint256"
                },
                {
                    "internalType": "uint256",
                    "name": "idWant",
                    "type": "uint256"
                },
                {
                    "internalType": "uint256",
                    "name": "amountWant",
                    "type": "uint256"
                }
            ],
            "name": "trade",
            "outputs": [],
            "stateMutability": "nonpayable",
            "type": "function"
        },
        {
            "inputs": [
                {
                    "internalType": "address",
                    "name": "newOwner",
                    "type": "address"
                }
            ],
            "name": "transferOwnership",
            "outputs": [],
            "stateMutability": "nonpayable",
            "type": "function"
        },
        {
            "inputs": [
                {
                    "internalType": "address",
                    "name": "",
                    "type": "address"
                }
            ],
            "name": "uniqueOwnedCount",
            "outputs": [
                {
                    "internalType": "uint256",
                    "name": "",
                    "type": "uint256"
                }
            ],
            "stateMutability": "view",
            "type": "function"
        },
        {
            "inputs": [
                {
                    "internalType": "uint256",
                    "name": "",
                    "type": "uint256"
                }
            ],
            "name": "uri",
            "outputs": [
                {
                    "internalType": "string",
                    "name": "",
                    "type": "string"
                }
            ],
            "stateMutability": "view",
            "type": "function"
        }
    ],
    "bytecode": "0x6080604052600160085534801561001557600080fd5b503360405180602001604052806000815250610036816100be60201b60201c565b50600073ffffffffffffffffffffffffffffffffffffffff168173ffffffffffffffffffffffffffffffffffffffff16036100a95760006040517f1e4fbdf70000000000000000000000000000000000000000000000000000000081526004016100a091906101d8565b60405180910390fd5b6100b8816100d160201b60201c565b50610515565b80600290816100cd9190610443565b5050565b6000600360009054906101000a900473ffffffffffffffffffffffffffffffffffffffff16905081600360006101000a81548173ffffffffffffffffffffffffffffffffffffffff021916908373ffffffffffffffffffffffffffffffffffffffff1602179055508173ffffffffffffffffffffffffffffffffffffffff168173ffffffffffffffffffffffffffffffffffffffff167f8be0079c531659141344cd1fd0a4f28419497f9722a3daafe3b4186f6b6457e060405160405180910390a35050565b600073ffffffffffffffffffffffffffffffffffffffff82169050919050565b60006101c282610197565b9050919050565b6101d2816101b7565b82525050565b60006020820190506101ed60008301846101c9565b92915050565b600081519050919050565b7f4e487b7100000000000000000000000000000000000000000000000000000000600052604160045260246000fd5b7f4e487b7100000000000000000000000000000000000000000000000000000000600052602260045260246000fd5b6000600282049050600182168061027457607f821691505b6020821081036102875761028661022d565b5b50919050565b60008190508160005260206000209050919050565b60006020601f8301049050919050565b600082821b905092915050565b6000600883026102ef7fffffffffffffffffffffffffffffffffffffffffffffffffffffffffffffffff826102b2565b6102f986836102b2565b95508019841693508086168417925050509392505050565b6000819050919050565b6000819050919050565b600061034061033b61033684610311565b61031b565b610311565b9050919050565b6000819050919050565b61035a83610325565b61036e61036682610347565b8484546102bf565b825550505050565b600090565b610383610376565b61038e818484610351565b505050565b5b818110156103b2576103a760008261037b565b600181019050610394565b5050565b601f8211156103f7576103c88161028d565b6103d1846102a2565b810160208510156103e0578190505b6103f46103ec856102a2565b830182610393565b50505b505050565b600082821c905092915050565b600061041a600019846008026103fc565b1980831691505092915050565b60006104338383610409565b9150826002028217905092915050565b61044c826101f3565b67ffffffffffffffff811115610465576104646101fe565b5b61046f825461025c565b61047a8282856103b6565b600060209050601f8311600181146104ad576000841561049b578287015190505b6104a58582610427565b86555061050d565b601f1984166104bb8661028d565b60005b828110156104e3578489015182556001820191506020850194506020810190506104be565b8683101561050057848901516104fc601f891682610409565b8355505b6001600288020188555050505b505050505050565b6149ec806105246000396000f3fe608060405234801561001057600080fd5b50600436106101415760003560e01c80638da5cb5b116100b8578063e985e9c51161007c578063e985e9c514610388578063e9a22dc3146103b8578063eac8f5b8146103e8578063f1a0995c14610418578063f242432a14610448578063f2fde38b1461046457610141565b80638da5cb5b146102e4578063923ad5de14610302578063a22cb4651461031e578063be9511831461033a578063e5c99b6c1461035857610141565b80634059789f1161010a5780634059789f1461020e57806346b4f7021461023e5780634e1273f41461026e578063715018a61461029e57806372b49d63146102a8578063811480ba146102c657610141565b8062fdd58e1461014657806301ffc9a7146101765780630e89341c146101a65780632baf2acb146101d65780632eb2c2d6146101f2575b600080fd5b610160600480360381019061015b9190612e6a565b610480565b60405161016d9190612eb9565b60405180910390f35b610190600480360381019061018b9190612f2c565b6104da565b60405161019d9190612f74565b60405180910390f35b6101c060048036038101906101bb9190612f8f565b6105bc565b6040516101cd919061304c565b60405180910390f35b6101f060048036038101906101eb919061306e565b610650565b005b61020c600480360381019061020791906132be565b6107d2565b005b6102286004803603810190610223919061338d565b61087a565b6040516102359190612eb9565b60405180910390f35b6102586004803603810190610253919061338d565b610892565b6040516102659190612eb9565b60405180910390f35b6102886004803603810190610283919061347d565b6108aa565b60405161029591906135b3565b60405180910390f35b6102a66109b3565b005b6102b06109c7565b6040516102bd9190612eb9565b60405180910390f35b6102ce6109cd565b6040516102db9190612eb9565b60405180910390f35b6102ec6109d2565b6040516102f991906135e4565b60405180910390f35b61031c600480360381019061031791906135ff565b6109fc565b005b610338600480360381019061033391906136a6565b610e3e565b005b610342610e54565b60405161034f9190612eb9565b60405180910390f35b610372600480360381019061036d9190612e6a565b610e5a565b60405161037f9190612eb9565b60405180910390f35b6103a2600480360381019061039d91906136e6565b610e7f565b6040516103af9190612f74565b60405180910390f35b6103d260048036038101906103cd91906137a6565b610f13565b6040516103df9190612eb9565b60405180910390f35b61040260048036038101906103fd9190612f8f565b611163565b60405161040f919061399e565b60405180910390f35b610432600480360381019061042d9190612f8f565b611366565b60405161043f9190613a7e565b60405180910390f35b610462600480360381019061045d9190613aa0565b611460565b005b61047e6004803603810190610479919061338d565b611508565b005b600080600083815260200190815260200160002060008473ffffffffffffffffffffffffffffffffffffffff1673ffffffffffffffffffffffffffffffffffffffff16815260200190815260200160002054905092915050565b60007fd9b67a26000000000000000000000000000000000000000000000000000000007bffffffffffffffffffffffffffffffffffffffffffffffffffffffff1916827bffffffffffffffffffffffffffffffffffffffffffffffffffffffff191614806105a557507f0e89341c000000000000000000000000000000000000000000000000000000007bffffffffffffffffffffffffffffffffffffffffffffffffffffffff1916827bffffffffffffffffffffffffffffffffffffffffffffffffffffffff1916145b806105b557506105b48261158e565b5b9050919050565b6060600280546105cb90613b66565b80601f01602080910402602001604051908101604052809291908181526020018280546105f790613b66565b80156106445780601f1061061957610100808354040283529160200191610644565b820191906000526020600020905b81548152906001019060200180831161062757829003601f168201915b50505050509050919050565b6106586115f8565b600073ffffffffffffffffffffffffffffffffffffffff168373ffffffffffffffffffffffffffffffffffffffff16036106c7576040517f08c379a00000000000000000000000000000000000000000000000000000000081526004016106be90613be3565b60405180910390fd5b6000600960008481526020019081526020016000206004015403610720576040517f08c379a000000000000000000000000000000000000000000000000000000000815260040161071790613c4f565b60405180910390fd5b60008111610763576040517f08c379a000000000000000000000000000000000000000000000000000000000815260040161075a90613cbb565b60405180910390fd5b61077e8383836040518060200160405280600081525061167f565b818373ffffffffffffffffffffffffffffffffffffffff167fae6f573e24512836b8d9f28578ff4ce358e90bc8ef0bfc89838fe2775ed6b294836040516107c59190612eb9565b60405180910390a3505050565b60006107dc611718565b90508073ffffffffffffffffffffffffffffffffffffffff168673ffffffffffffffffffffffffffffffffffffffff1614158015610821575061081f8682610e7f565b155b156108655780866040517fe237d92200000000000000000000000000000000000000000000000000000000815260040161085c929190613cdb565b60405180910390fd5b6108728686868686611720565b505050505050565b60066020528060005260406000206000915090505481565b60046020528060005260406000206000915090505481565b606081518351146108f657815183516040517f5b0599910000000000000000000000000000000000000000000000000000000081526004016108ed929190613d04565b60405180910390fd5b6000835167ffffffffffffffff811115610913576109126130c6565b5b6040519080825280602002602001820160405280156109415781602001602082028036833780820191505090505b50905060005b84518110156109a85761097e610966828761181890919063ffffffff16565b610979838761182c90919063ffffffff16565b610480565b82828151811061099157610990613d2d565b5b602002602001018181525050806001019050610947565b508091505092915050565b6109bb6115f8565b6109c56000611840565b565b61012c81565b600481565b6000600360009054906101000a900473ffffffffffffffffffffffffffffffffffffffff16905090565b600073ffffffffffffffffffffffffffffffffffffffff168573ffffffffffffffffffffffffffffffffffffffff1603610a6b576040517f08c379a0000000000000000000000000000000000000000000000000000000008152600401610a6290613da8565b60405180910390fd5b3373ffffffffffffffffffffffffffffffffffffffff168573ffffffffffffffffffffffffffffffffffffffff1603610ad9576040517f08c379a0000000000000000000000000000000000000000000000000000000008152600401610ad090613e14565b60405180910390fd5b600083118015610ae95750600081115b610b28576040517f08c379a0000000000000000000000000000000000000000000000000000000008152600401610b1f90613cbb565b60405180910390fd5b6000600960008681526020019081526020016000206004015403610b81576040517f08c379a0000000000000000000000000000000000000000000000000000000008152600401610b7890613e80565b60405180910390fd5b6000600960008481526020019081526020016000206004015403610bda576040517f08c379a0000000000000000000000000000000000000000000000000000000008152600401610bd190613eec565b60405180910390fd5b82610be53386610480565b1015610c26576040517f08c379a0000000000000000000000000000000000000000000000000000000008152600401610c1d90613f58565b60405180910390fd5b80610c318684610480565b1015610c72576040517f08c379a0000000000000000000000000000000000000000000000000000000008152600401610c6990613fea565b60405180910390fd5b610c7c3330610e7f565b610cbb576040517f08c379a0000000000000000000000000000000000000000000000000000000008152600401610cb290614056565b60405180910390fd5b610cc58530610e7f565b610d04576040517f08c379a0000000000000000000000000000000000000000000000000000000008152600401610cfb906140c2565b60405180910390fd5b6000836009600087815260200190815260200160002060020154610d289190614111565b90506000826009600086815260200190815260200160002060020154610d4e9190614111565b9050808214610d92576040517f08c379a0000000000000000000000000000000000000000000000000000000008152600401610d899061419f565b60405180910390fd5b610dae3388888860405180602001604052806000815250611906565b610dca8733868660405180602001604052806000815250611906565b8673ffffffffffffffffffffffffffffffffffffffff163373ffffffffffffffffffffffffffffffffffffffff167ff6afefc8f9e391fc2606fcc41f4b18431b3b44355cd7d41ada81ef26d70dbd5588888888604051610e2d94939291906141bf565b60405180910390a350505050505050565b610e50610e49611718565b8383611a11565b5050565b61025881565b6005602052816000526040600020602052806000526040600020600091509150505481565b6000600160008473ffffffffffffffffffffffffffffffffffffffff1673ffffffffffffffffffffffffffffffffffffffff16815260200190815260200160002060008373ffffffffffffffffffffffffffffffffffffffff1673ffffffffffffffffffffffffffffffffffffffff16815260200190815260200160002060009054906101000a900460ff16905092915050565b6000610f1d6115f8565b60008787905011610f63576040517f08c379a0000000000000000000000000000000000000000000000000000000008152600401610f5a90614250565b60405180910390fd5b60008411610fa6576040517f08c379a0000000000000000000000000000000000000000000000000000000008152600401610f9d906142bc565b60405180910390fd5b60086000815480929190610fb9906142dc565b9190505590506040518060c0016040528088888080601f016020809104026020016040519081016040528093929190818152602001838380828437600081840152601f19601f82011690508083019250505050505050815260200186600481111561102757611026613897565b5b815260200185815260200184848080601f016020809104026020016040519081016040528093929190818152602001838380828437600081840152601f19601f82011690508083019250505050505050815260200142815260200160008152506009600083815260200190815260200160002060008201518160000190816110af91906144d0565b5060208201518160010160006101000a81548160ff021916908360048111156110db576110da613897565b5b02179055506040820151816002015560608201518160030190816110ff91906144d0565b506080820151816004015560a08201518160050155905050807f29087ecf283593f758cd80ceff22b55221b9f746fdc5507160de72610f98dba6888888888888604051611151969594939291906145de565b60405180910390a29695505050505050565b61116b612d7a565b60006009600084815260200190815260200160002060040154036111c4576040517f08c379a00000000000000000000000000000000000000000000000000000000081526004016111bb90613c4f565b60405180910390fd5b600960008381526020019081526020016000206040518060c00160405290816000820180546111f290613b66565b80601f016020809104026020016040519081016040528092919081815260200182805461121e90613b66565b801561126b5780601f106112405761010080835404028352916020019161126b565b820191906000526020600020905b81548152906001019060200180831161124e57829003601f168201915b505050505081526020016001820160009054906101000a900460ff16600481111561129957611298613897565b5b60048111156112ab576112aa613897565b5b8152602001600282015481526020016003820180546112c990613b66565b80601f01602080910402602001604051908101604052809291908181526020018280546112f590613b66565b80156113425780601f1061131757610100808354040283529160200191611342565b820191906000526020600020905b81548152906001019060200180831161132557829003601f168201915b50505050508152602001600482015481526020016005820154815250509050919050565b606060006009600084815260200190815260200160002060040154036113c1576040517f08c379a00000000000000000000000000000000000000000000000000000000081526004016113b890613c4f565b60405180910390fd5b600a600083815260200190815260200160002080548060200260200160405190810160405280929190818152602001828054801561145457602002820191906000526020600020905b8160009054906101000a900473ffffffffffffffffffffffffffffffffffffffff1673ffffffffffffffffffffffffffffffffffffffff168152602001906001019080831161140a575b50505050509050919050565b600061146a611718565b90508073ffffffffffffffffffffffffffffffffffffffff168673ffffffffffffffffffffffffffffffffffffffff16141580156114af57506114ad8682610e7f565b155b156114f35780866040517fe237d9220000000000000000000000000000000000000000000000000000000081526004016114ea929190613cdb565b60405180910390fd5b6115008686868686611906565b505050505050565b6115106115f8565b600073ffffffffffffffffffffffffffffffffffffffff168173ffffffffffffffffffffffffffffffffffffffff16036115825760006040517f1e4fbdf700000000000000000000000000000000000000000000000000000000815260040161157991906135e4565b60405180910390fd5b61158b81611840565b50565b60007f01ffc9a7000000000000000000000000000000000000000000000000000000007bffffffffffffffffffffffffffffffffffffffffffffffffffffffff1916827bffffffffffffffffffffffffffffffffffffffffffffffffffffffff1916149050919050565b611600611718565b73ffffffffffffffffffffffffffffffffffffffff1661161e6109d2565b73ffffffffffffffffffffffffffffffffffffffff161461167d57611641611718565b6040517f118cdaa700000000000000000000000000000000000000000000000000000000815260040161167491906135e4565b60405180910390fd5b565b600073ffffffffffffffffffffffffffffffffffffffff168473ffffffffffffffffffffffffffffffffffffffff16036116f15760006040517f57f447ce0000000000000000000000000000000000000000000000000000000081526004016116e891906135e4565b60405180910390fd5b6000806116fe8585611b81565b91509150611710600087848487611bb1565b505050505050565b600033905090565b600073ffffffffffffffffffffffffffffffffffffffff168473ffffffffffffffffffffffffffffffffffffffff16036117925760006040517f57f447ce00000000000000000000000000000000000000000000000000000000815260040161178991906135e4565b60405180910390fd5b600073ffffffffffffffffffffffffffffffffffffffff168573ffffffffffffffffffffffffffffffffffffffff16036118045760006040517f01a835140000000000000000000000000000000000000000000000000000000081526004016117fb91906135e4565b60405180910390fd5b6118118585858585611bb1565b5050505050565b600060208202602084010151905092915050565b600060208202602084010151905092915050565b6000600360009054906101000a900473ffffffffffffffffffffffffffffffffffffffff16905081600360006101000a81548173ffffffffffffffffffffffffffffffffffffffff021916908373ffffffffffffffffffffffffffffffffffffffff1602179055508173ffffffffffffffffffffffffffffffffffffffff168173ffffffffffffffffffffffffffffffffffffffff167f8be0079c531659141344cd1fd0a4f28419497f9722a3daafe3b4186f6b6457e060405160405180910390a35050565b600073ffffffffffffffffffffffffffffffffffffffff168473ffffffffffffffffffffffffffffffffffffffff16036119785760006040517f57f447ce00000000000000000000000000000000000000000000000000000000815260040161196f91906135e4565b60405180910390fd5b600073ffffffffffffffffffffffffffffffffffffffff168573ffffffffffffffffffffffffffffffffffffffff16036119ea5760006040517f01a835140000000000000000000000000000000000000000000000000000000081526004016119e191906135e4565b60405180910390fd5b6000806119f78585611b81565b91509150611a088787848487611bb1565b50505050505050565b600073ffffffffffffffffffffffffffffffffffffffff168273ffffffffffffffffffffffffffffffffffffffff1603611a835760006040517fced3e100000000000000000000000000000000000000000000000000000000008152600401611a7a91906135e4565b60405180910390fd5b80600160008573ffffffffffffffffffffffffffffffffffffffff1673ffffffffffffffffffffffffffffffffffffffff16815260200190815260200160002060008473ffffffffffffffffffffffffffffffffffffffff1673ffffffffffffffffffffffffffffffffffffffff16815260200190815260200160002060006101000a81548160ff0219169083151502179055508173ffffffffffffffffffffffffffffffffffffffff168373ffffffffffffffffffffffffffffffffffffffff167f17307eab39ab6107e8899845ad3d59bd9653f200f220920489ca2b5937696c3183604051611b749190612f74565b60405180910390a3505050565b60608060405191506001825283602083015260408201905060018152826020820152604081016040529250929050565b611bbd85858585611c63565b600073ffffffffffffffffffffffffffffffffffffffff168473ffffffffffffffffffffffffffffffffffffffff1614611c5c576000611bfb611718565b90506001845103611c4b576000611c1c60008661182c90919063ffffffff16565b90506000611c3460008661182c90919063ffffffff16565b9050611c4483898985858961208e565b5050611c5a565b611c59818787878787612242565b5b505b5050505050565b600073ffffffffffffffffffffffffffffffffffffffff168473ffffffffffffffffffffffffffffffffffffffff1603611ca557611ca0836123f6565b611caf565b611cae846123f6565b5b600073ffffffffffffffffffffffffffffffffffffffff168473ffffffffffffffffffffffffffffffffffffffff1614611d225760005b8251811015611d2057611d1385848381518110611d0657611d05613d2d565b5b60200260200101516124be565b8080600101915050611ce6565b505b611d2e8484848461258b565b600073ffffffffffffffffffffffffffffffffffffffff168373ffffffffffffffffffffffffffffffffffffffff1614611deb5760005b8251811015611de957600060096000858481518110611d8757611d86613d2d565b5b602002602001015181526020019081526020016000206004015414611ddc574260096000858481518110611dbe57611dbd613d2d565b5b60200260200101518152602001908152602001600020600501819055505b8080600101915050611d65565b505b600073ffffffffffffffffffffffffffffffffffffffff168473ffffffffffffffffffffffffffffffffffffffff1603611e685742600460008573ffffffffffffffffffffffffffffffffffffffff1673ffffffffffffffffffffffffffffffffffffffff16815260200190815260200160002081905550611ead565b42600460008673ffffffffffffffffffffffffffffffffffffffff1673ffffffffffffffffffffffffffffffffffffffff168152602001908152602001600020819055505b600073ffffffffffffffffffffffffffffffffffffffff168373ffffffffffffffffffffffffffffffffffffffff1614611f785760005b8251811015611f765761025842611efb9190614635565b600560008673ffffffffffffffffffffffffffffffffffffffff1673ffffffffffffffffffffffffffffffffffffffff1681526020019081526020016000206000858481518110611f4f57611f4e613d2d565b5b60200260200101518152602001908152602001600020819055508080600101915050611ee4565b505b600073ffffffffffffffffffffffffffffffffffffffff168473ffffffffffffffffffffffffffffffffffffffff1614158015611fe25750600073ffffffffffffffffffffffffffffffffffffffff168373ffffffffffffffffffffffffffffffffffffffff1614155b156120265760005b82518110156120245761201783828151811061200957612008613d2d565b5b602002602001015186612933565b8080600101915050611fea565b505b60005b8251811015612087576120568584838151811061204957612048613d2d565b5b6020026020010151612a98565b61207a8484838151811061206d5761206c613d2d565b5b6020026020010151612a98565b8080600101915050612029565b5050505050565b60008473ffffffffffffffffffffffffffffffffffffffff163b111561223a578373ffffffffffffffffffffffffffffffffffffffff1663f23a6e6187878686866040518663ffffffff1660e01b81526004016120ef9594939291906146be565b6020604051808303816000875af192505050801561212b57506040513d601f19601f82011682018060405250810190612128919061472d565b60015b6121af573d806000811461215b576040519150601f19603f3d011682016040523d82523d6000602084013e612160565b606091505b5060008151036121a757846040517f57f447ce00000000000000000000000000000000000000000000000000000000815260040161219e91906135e4565b60405180910390fd5b805160208201fd5b63f23a6e6160e01b7bffffffffffffffffffffffffffffffffffffffffffffffffffffffff1916817bffffffffffffffffffffffffffffffffffffffffffffffffffffffff19161461223857846040517f57f447ce00000000000000000000000000000000000000000000000000000000815260040161222f91906135e4565b60405180910390fd5b505b505050505050565b60008473ffffffffffffffffffffffffffffffffffffffff163b11156123ee578373ffffffffffffffffffffffffffffffffffffffff1663bc197c8187878686866040518663ffffffff1660e01b81526004016122a395949392919061475a565b6020604051808303816000875af19250505080156122df57506040513d601f19601f820116820180604052508101906122dc919061472d565b60015b612363573d806000811461230f576040519150601f19603f3d011682016040523d82523d6000602084013e612314565b606091505b50600081510361235b57846040517f57f447ce00000000000000000000000000000000000000000000000000000000815260040161235291906135e4565b60405180910390fd5b805160208201fd5b63bc197c8160e01b7bffffffffffffffffffffffffffffffffffffffffffffffffffffffff1916817bffffffffffffffffffffffffffffffffffffffffffffffffffffffff1916146123ec57846040517f57f447ce0000000000000000000000000000000000000000000000000000000081526004016123e391906135e4565b60405180910390fd5b505b505050505050565b600073ffffffffffffffffffffffffffffffffffffffff168173ffffffffffffffffffffffffffffffffffffffff1603156124bb5761012c600460008373ffffffffffffffffffffffffffffffffffffffff1673ffffffffffffffffffffffffffffffffffffffff168152602001908152602001600020546124789190614635565b4210156124ba576040517f08c379a00000000000000000000000000000000000000000000000000000000081526004016124b19061480e565b60405180910390fd5b5b50565b600073ffffffffffffffffffffffffffffffffffffffff168273ffffffffffffffffffffffffffffffffffffffff16031561258757600560008373ffffffffffffffffffffffffffffffffffffffff1673ffffffffffffffffffffffffffffffffffffffff168152602001908152602001600020600082815260200190815260200160002054421015612586576040517f08c379a000000000000000000000000000000000000000000000000000000000815260040161257d9061487a565b60405180910390fd5b5b5050565b80518251146125d557815181516040517f5b0599910000000000000000000000000000000000000000000000000000000081526004016125cc929190613d04565b60405180910390fd5b60006125df611718565b905060005b83518110156127ee576000612602828661182c90919063ffffffff16565b90506000612619838661182c90919063ffffffff16565b9050600073ffffffffffffffffffffffffffffffffffffffff168873ffffffffffffffffffffffffffffffffffffffff161461274657600080600084815260200190815260200160002060008a73ffffffffffffffffffffffffffffffffffffffff1673ffffffffffffffffffffffffffffffffffffffff168152602001908152602001600020549050818110156126ee57888183856040517f03dee4c50000000000000000000000000000000000000000000000000000000081526004016126e5949392919061489a565b60405180910390fd5b81810360008085815260200190815260200160002060008b73ffffffffffffffffffffffffffffffffffffffff1673ffffffffffffffffffffffffffffffffffffffff16815260200190815260200160002081905550505b600073ffffffffffffffffffffffffffffffffffffffff168773ffffffffffffffffffffffffffffffffffffffff16146127e1578060008084815260200190815260200160002060008973ffffffffffffffffffffffffffffffffffffffff1673ffffffffffffffffffffffffffffffffffffffff16815260200190815260200160002060008282546127d99190614635565b925050819055505b50508060010190506125e4565b5060018351036128ad57600061280e60008561182c90919063ffffffff16565b9050600061282660008561182c90919063ffffffff16565b90508573ffffffffffffffffffffffffffffffffffffffff168773ffffffffffffffffffffffffffffffffffffffff168473ffffffffffffffffffffffffffffffffffffffff167fc3d58168c5ae7397731d063d5bbf3d657854427343f4c083240f7aacaa2d0f62858560405161289e929190613d04565b60405180910390a4505061292c565b8373ffffffffffffffffffffffffffffffffffffffff168573ffffffffffffffffffffffffffffffffffffffff168273ffffffffffffffffffffffffffffffffffffffff167f4a39dc06d4c0dbc64b70af90fd698a233a518aa5d07e595d983b8c0526c8f7fb86866040516129239291906148df565b60405180910390a45b5050505050565b600073ffffffffffffffffffffffffffffffffffffffff168173ffffffffffffffffffffffffffffffffffffffff160315612a9457600060096000848152602001908152602001600020600401540315612a94576000600a60008481526020019081526020016000209050600081805490501480612a2a57508173ffffffffffffffffffffffffffffffffffffffff1681600183805490506129d59190614916565b815481106129e6576129e5613d2d565b5b9060005260206000200160009054906101000a900473ffffffffffffffffffffffffffffffffffffffff1673ffffffffffffffffffffffffffffffffffffffff1614155b15612a925780829080600181540180825580915050600190039060005260206000200160009091909190916101000a81548173ffffffffffffffffffffffffffffffffffffffff021916908373ffffffffffffffffffffffffffffffffffffffff1602179055505b505b5050565b600073ffffffffffffffffffffffffffffffffffffffff168273ffffffffffffffffffffffffffffffffffffffff160315612d76576000612ad98383610480565b90506000600760008573ffffffffffffffffffffffffffffffffffffffff1673ffffffffffffffffffffffffffffffffffffffff168152602001908152602001600020600084815260200190815260200160002060009054906101000a900460ff16905080158015612b4b5750600082115b15612ca05760046001600660008773ffffffffffffffffffffffffffffffffffffffff1673ffffffffffffffffffffffffffffffffffffffff16815260200190815260200160002054612b9e9190614635565b1115612bdf576040517f08c379a0000000000000000000000000000000000000000000000000000000008152600401612bd690614996565b60405180910390fd5b6001600760008673ffffffffffffffffffffffffffffffffffffffff1673ffffffffffffffffffffffffffffffffffffffff168152602001908152602001600020600085815260200190815260200160002060006101000a81548160ff0219169083151502179055506001600660008673ffffffffffffffffffffffffffffffffffffffff1673ffffffffffffffffffffffffffffffffffffffff1681526020019081526020016000206000828254612c989190614635565b925050819055505b808015612cad5750600082145b15612d73576000600760008673ffffffffffffffffffffffffffffffffffffffff1673ffffffffffffffffffffffffffffffffffffffff168152602001908152602001600020600085815260200190815260200160002060006101000a81548160ff0219169083151502179055506001600660008673ffffffffffffffffffffffffffffffffffffffff1673ffffffffffffffffffffffffffffffffffffffff1681526020019081526020016000206000828254612d6b9190614916565b925050819055505b50505b5050565b6040518060c001604052806060815260200160006004811115612da057612d9f613897565b5b8152602001600081526020016060815260200160008152602001600081525090565b6000604051905090565b600080fd5b600080fd5b600073ffffffffffffffffffffffffffffffffffffffff82169050919050565b6000612e0182612dd6565b9050919050565b612e1181612df6565b8114612e1c57600080fd5b50565b600081359050612e2e81612e08565b92915050565b6000819050919050565b612e4781612e34565b8114612e5257600080fd5b50565b600081359050612e6481612e3e565b92915050565b60008060408385031215612e8157612e80612dcc565b5b6000612e8f85828601612e1f565b9250506020612ea085828601612e55565b9150509250929050565b612eb381612e34565b82525050565b6000602082019050612ece6000830184612eaa565b92915050565b60007fffffffff0000000000000000000000000000000000000000000000000000000082169050919050565b612f0981612ed4565b8114612f1457600080fd5b50565b600081359050612f2681612f00565b92915050565b600060208284031215612f4257612f41612dcc565b5b6000612f5084828501612f17565b91505092915050565b60008115159050919050565b612f6e81612f59565b82525050565b6000602082019050612f896000830184612f65565b92915050565b600060208284031215612fa557612fa4612dcc565b5b6000612fb384828501612e55565b91505092915050565b600081519050919050565b600082825260208201905092915050565b60005b83811015612ff6578082015181840152602081019050612fdb565b60008484015250505050565b6000601f19601f8301169050919050565b600061301e82612fbc565b6130288185612fc7565b9350613038818560208601612fd8565b61304181613002565b840191505092915050565b600060208201905081810360008301526130668184613013565b905092915050565b60008060006060848603121561308757613086612dcc565b5b600061309586828701612e1f565b93505060206130a686828701612e55565b92505060406130b786828701612e55565b9150509250925092565b600080fd5b7f4e487b7100000000000000000000000000000000000000000000000000000000600052604160045260246000fd5b6130fe82613002565b810181811067ffffffffffffffff8211171561311d5761311c6130c6565b5b80604052505050565b6000613130612dc2565b905061313c82826130f5565b919050565b600067ffffffffffffffff82111561315c5761315b6130c6565b5b602082029050602081019050919050565b600080fd5b600061318561318084613141565b613126565b905080838252602082019050602084028301858111156131a8576131a761316d565b5b835b818110156131d157806131bd8882612e55565b8452602084019350506020810190506131aa565b5050509392505050565b600082601f8301126131f0576131ef6130c1565b5b8135613200848260208601613172565b91505092915050565b600080fd5b600067ffffffffffffffff821115613229576132286130c6565b5b61323282613002565b9050602081019050919050565b82818337600083830152505050565b600061326161325c8461320e565b613126565b90508281526020810184848401111561327d5761327c613209565b5b61328884828561323f565b509392505050565b600082601f8301126132a5576132a46130c1565b5b81356132b584826020860161324e565b91505092915050565b600080600080600060a086880312156132da576132d9612dcc565b5b60006132e888828901612e1f565b95505060206132f988828901612e1f565b945050604086013567ffffffffffffffff81111561331a57613319612dd1565b5b613326888289016131db565b935050606086013567ffffffffffffffff81111561334757613346612dd1565b5b613353888289016131db565b925050608086013567ffffffffffffffff81111561337457613373612dd1565b5b61338088828901613290565b9150509295509295909350565b6000602082840312156133a3576133a2612dcc565b5b60006133b184828501612e1f565b91505092915050565b600067ffffffffffffffff8211156133d5576133d46130c6565b5b602082029050602081019050919050565b60006133f96133f4846133ba565b613126565b9050808382526020820190506020840283018581111561341c5761341b61316d565b5b835b8181101561344557806134318882612e1f565b84526020840193505060208101905061341e565b5050509392505050565b600082601f830112613464576134636130c1565b5b81356134748482602086016133e6565b91505092915050565b6000806040838503121561349457613493612dcc565b5b600083013567ffffffffffffffff8111156134b2576134b1612dd1565b5b6134be8582860161344f565b925050602083013567ffffffffffffffff8111156134df576134de612dd1565b5b6134eb858286016131db565b9150509250929050565b600081519050919050565b600082825260208201905092915050565b6000819050602082019050919050565b61352a81612e34565b82525050565b600061353c8383613521565b60208301905092915050565b6000602082019050919050565b6000613560826134f5565b61356a8185613500565b935061357583613511565b8060005b838110156135a657815161358d8882613530565b975061359883613548565b925050600181019050613579565b5085935050505092915050565b600060208201905081810360008301526135cd8184613555565b905092915050565b6135de81612df6565b82525050565b60006020820190506135f960008301846135d5565b92915050565b600080600080600060a0868803121561361b5761361a612dcc565b5b600061362988828901612e1f565b955050602061363a88828901612e55565b945050604061364b88828901612e55565b935050606061365c88828901612e55565b925050608061366d88828901612e55565b9150509295509295909350565b61368381612f59565b811461368e57600080fd5b50565b6000813590506136a08161367a565b92915050565b600080604083850312156136bd576136bc612dcc565b5b60006136cb85828601612e1f565b92505060206136dc85828601613691565b9150509250929050565b600080604083850312156136fd576136fc612dcc565b5b600061370b85828601612e1f565b925050602061371c85828601612e1f565b9150509250929050565b600080fd5b60008083601f840112613741576137406130c1565b5b8235905067ffffffffffffffff81111561375e5761375d613726565b5b60208301915083600182028301111561377a5761377961316d565b5b9250929050565b6005811061378e57600080fd5b50565b6000813590506137a081613781565b92915050565b600080600080600080608087890312156137c3576137c2612dcc565b5b600087013567ffffffffffffffff8111156137e1576137e0612dd1565b5b6137ed89828a0161372b565b9650965050602061380089828a01613791565b945050604061381189828a01612e55565b935050606087013567ffffffffffffffff81111561383257613831612dd1565b5b61383e89828a0161372b565b92509250509295509295509295565b600082825260208201905092915050565b600061386982612fbc565b613873818561384d565b9350613883818560208601612fd8565b61388c81613002565b840191505092915050565b7f4e487b7100000000000000000000000000000000000000000000000000000000600052602160045260246000fd5b600581106138d7576138d6613897565b5b50565b60008190506138e8826138c6565b919050565b60006138f8826138da565b9050919050565b613908816138ed565b82525050565b600060c083016000830151848203600086015261392b828261385e565b915050602083015161394060208601826138ff565b5060408301516139536040860182613521565b506060830151848203606086015261396b828261385e565b91505060808301516139806080860182613521565b5060a083015161399360a0860182613521565b508091505092915050565b600060208201905081810360008301526139b8818461390e565b905092915050565b600081519050919050565b600082825260208201905092915050565b6000819050602082019050919050565b6139f581612df6565b82525050565b6000613a0783836139ec565b60208301905092915050565b6000602082019050919050565b6000613a2b826139c0565b613a3581856139cb565b9350613a40836139dc565b8060005b83811015613a71578151613a5888826139fb565b9750613a6383613a13565b925050600181019050613a44565b5085935050505092915050565b60006020820190508181036000830152613a988184613a20565b905092915050565b600080600080600060a08688031215613abc57613abb612dcc565b5b6000613aca88828901612e1f565b9550506020613adb88828901612e1f565b9450506040613aec88828901612e55565b9350506060613afd88828901612e55565b925050608086013567ffffffffffffffff811115613b1e57613b1d612dd1565b5b613b2a88828901613290565b9150509295509295909350565b7f4e487b7100000000000000000000000000000000000000000000000000000000600052602260045260246000fd5b60006002820490506001821680613b7e57607f821691505b602082108103613b9157613b90613b37565b5b50919050565b7f5a65726f20616464726573730000000000000000000000000000000000000000600082015250565b6000613bcd600c83612fc7565b9150613bd882613b97565b602082019050919050565b60006020820190508181036000830152613bfc81613bc0565b9050919050565b7f4173736574206e6f7420666f756e640000000000000000000000000000000000600082015250565b6000613c39600f83612fc7565b9150613c4482613c03565b602082019050919050565b60006020820190508181036000830152613c6881613c2c565b9050919050565b7f416d6f756e74206d757374206265203e20300000000000000000000000000000600082015250565b6000613ca5601283612fc7565b9150613cb082613c6f565b602082019050919050565b60006020820190508181036000830152613cd481613c98565b9050919050565b6000604082019050613cf060008301856135d5565b613cfd60208301846135d5565b9392505050565b6000604082019050613d196000830185612eaa565b613d266020830184612eaa565b9392505050565b7f4e487b7100000000000000000000000000000000000000000000000000000000600052603260045260246000fd5b7f5a65726f20636f756e7465727061727479000000000000000000000000000000600082015250565b6000613d92601183612fc7565b9150613d9d82613d5c565b602082019050919050565b60006020820190508181036000830152613dc181613d85565b9050919050565b7f53616d6520616464726573730000000000000000000000000000000000000000600082015250565b6000613dfe600c83612fc7565b9150613e0982613dc8565b602082019050919050565b60006020820190508181036000830152613e2d81613df1565b9050919050565b7f47697665206173736574206e6f7420666f756e64000000000000000000000000600082015250565b6000613e6a601483612fc7565b9150613e7582613e34565b602082019050919050565b60006020820190508181036000830152613e9981613e5d565b9050919050565b7f57616e74206173736574206e6f7420666f756e64000000000000000000000000600082015250565b6000613ed6601483612fc7565b9150613ee182613ea0565b602082019050919050565b60006020820190508181036000830152613f0581613ec9565b9050919050565b7f496e73756666696369656e7420676976652062616c616e636500000000000000600082015250565b6000613f42601983612fc7565b9150613f4d82613f0c565b602082019050919050565b60006020820190508181036000830152613f7181613f35565b9050919050565b7f436f756e746572706172747920696e73756666696369656e742062616c616e6360008201527f6500000000000000000000000000000000000000000000000000000000000000602082015250565b6000613fd4602183612fc7565b9150613fdf82613f78565b604082019050919050565b6000602082019050818103600083015261400381613fc7565b9050919050565b7f4d616b6572206e6f7420617070726f7665640000000000000000000000000000600082015250565b6000614040601283612fc7565b915061404b8261400a565b602082019050919050565b6000602082019050818103600083015261406f81614033565b9050919050565b7f436f756e7465727061727479206e6f7420617070726f76656400000000000000600082015250565b60006140ac601983612fc7565b91506140b782614076565b602082019050919050565b600060208201905081810360008301526140db8161409f565b9050919050565b7f4e487b7100000000000000000000000000000000000000000000000000000000600052601160045260246000fd5b600061411c82612e34565b915061412783612e34565b925082820261413581612e34565b9150828204841483151761414c5761414b6140e2565b5b5092915050565b7f5472616465206e6f742066616972000000000000000000000000000000000000600082015250565b6000614189600e83612fc7565b915061419482614153565b602082019050919050565b600060208201905081810360008301526141b88161417c565b9050919050565b60006080820190506141d46000830187612eaa565b6141e16020830186612eaa565b6141ee6040830185612eaa565b6141fb6060830184612eaa565b95945050505050565b7f4e616d6520726571756972656400000000000000000000000000000000000000600082015250565b600061423a600d83612fc7565b915061424582614204565b602082019050919050565b600060208201905081810360008301526142698161422d565b9050919050565b7f56616c7565206d757374206265203e2030000000000000000000000000000000600082015250565b60006142a6601183612fc7565b91506142b182614270565b602082019050919050565b600060208201905081810360008301526142d581614299565b9050919050565b60006142e782612e34565b91507fffffffffffffffffffffffffffffffffffffffffffffffffffffffffffffffff8203614319576143186140e2565b5b600182019050919050565b60008190508160005260206000209050919050565b60006020601f8301049050919050565b600082821b905092915050565b6000600883026143867fffffffffffffffffffffffffffffffffffffffffffffffffffffffffffffffff82614349565b6143908683614349565b95508019841693508086168417925050509392505050565b6000819050919050565b60006143cd6143c86143c384612e34565b6143a8565b612e34565b9050919050565b6000819050919050565b6143e7836143b2565b6143fb6143f3826143d4565b848454614356565b825550505050565b600090565b614410614403565b61441b8184846143de565b505050565b5b8181101561443f57614434600082614408565b600181019050614421565b5050565b601f8211156144845761445581614324565b61445e84614339565b8101602085101561446d578190505b61448161447985614339565b830182614420565b50505b505050565b600082821c905092915050565b60006144a760001984600802614489565b1980831691505092915050565b60006144c08383614496565b9150826002028217905092915050565b6144d982612fbc565b67ffffffffffffffff8111156144f2576144f16130c6565b5b6144fc8254613b66565b614507828285614443565b600060209050601f83116001811461453a5760008415614528578287015190505b61453285826144b4565b86555061459a565b601f19841661454886614324565b60005b828110156145705784890151825560018201915060208501945060208101905061454b565b8683101561458d5784890151614589601f891682614496565b8355505b6001600288020188555050505b505050505050565b60006145ae8385612fc7565b93506145bb83858461323f565b6145c483613002565b840190509392505050565b6145d8816138ed565b82525050565b600060808201905081810360008301526145f981888a6145a2565b905061460860208301876145cf565b6146156040830186612eaa565b81810360608301526146288184866145a2565b9050979650505050505050565b600061464082612e34565b915061464b83612e34565b9250828201905080821115614663576146626140e2565b5b92915050565b600081519050919050565b600082825260208201905092915050565b600061469082614669565b61469a8185614674565b93506146aa818560208601612fd8565b6146b381613002565b840191505092915050565b600060a0820190506146d360008301886135d5565b6146e060208301876135d5565b6146ed6040830186612eaa565b6146fa6060830185612eaa565b818103608083015261470c8184614685565b90509695505050505050565b60008151905061472781612f00565b92915050565b60006020828403121561474357614742612dcc565b5b600061475184828501614718565b91505092915050565b600060a08201905061476f60008301886135d5565b61477c60208301876135d5565b818103604083015261478e8186613555565b905081810360608301526147a28185613555565b905081810360808301526147b68184614685565b90509695505050505050565b7f436f6f6c646f776e206e6f742070617373656400000000000000000000000000600082015250565b60006147f8601383612fc7565b9150614803826147c2565b602082019050919050565b60006020820190508181036000830152614827816147eb565b9050919050565b7f546f6b656e206973206c6f636b65640000000000000000000000000000000000600082015250565b6000614864600f83612fc7565b915061486f8261482e565b602082019050919050565b6000602082019050818103600083015261489381614857565b9050919050565b60006080820190506148af60008301876135d5565b6148bc6020830186612eaa565b6148c96040830185612eaa565b6148d66060830184612eaa565b95945050505050565b600060408201905081810360008301526148f98185613555565b9050818103602083015261490d8184613555565b90509392505050565b600061492182612e34565b915061492c83612e34565b9250828203905081811115614944576149436140e2565b5b92915050565b7f4d6178207265736f757263657320726561636865640000000000000000000000600082015250565b6000614980601583612fc7565b915061498b8261494a565b602082019050919050565b600060208201905081810360008301526149af81614973565b905091905056fea264697066735822122008bbad20c23f37c870de7e3ed8c39ac173defdad9cd34ac9d7ed66ce8ec0fc6064736f6c634300081c0033",
    "linkReferences": {},
    "deployedLinkReferences": {}
}